:020000040800F2
:10000000D04100203D31000845310008473100084B
:10001000493100084B3100084D3100080000000054
:10002000000000000000000000000000A90100081E
:100030005131000800000000FD010008111F0008F8
:100040005731000857310008573100085731000870
:100050005731000857310008D10300085731000814
:100060005731000857310008573100085731000850
:100070005731000857310008573100085731000840
:1000800057310008573100085731000800000000C0
:1000900000000000000000000000000057310008D0
:1000A0005731000857310008573100085731000810
:1000B0005731000857310008573100085731000800
:1000C00057310008573100085731000857310008F0
:1000D000573100088703000857310008000000006E
:1000E0005731000857310008573100080000000060
:1000F0000000000000000000000000005731000870
:10010000000000005731000857310008573100083F
:1001100000000000000000000000000000000000DF
:10012000573100085731000857310008573100088F
:10013000573100080000000000000000000000002F
:10014000000000000000000000000000573100081F
:10015000573100085731000857310008573100085F
:10016000573100085731000800000000000000006F
:10017000000000000000000000000000000000007F
:1001800000000000573100080000000000000000DF
:1001900057310008DFF80CD003F006F8004800479C
:1001A000E1020008D0410020294B19680868B0E836
:1001B000F04F80F30988BFF36F8F4FF0000080F39A
:1001C000118870470000000006480068006880F34E
:1001D000088862B661B6BFF34F8FBFF36F8F00DF41
:1001E00000BF00BF08ED00E0DFF80C00016841F43B
:1001F00070010160704700BF88ED00E0EFF30980F7
:10020000BFF36F8F124B1A681EF0100F08BF20ED5E
:10021000108A20E9F04F106008B44FF0100080F30E
:10022000118800F0EBFB4FF0000080F3118808BC50
:1002300019680868B0E8F04F1EF0100F08BFB0EC66
:10024000108A80F30988BFF36F8F704700BF00BF2B
:1002500018000020EFF311804FF0100181F3118896
:10026000704780F311887047EFF3058070470000F6
:1002700082B0644C00235A1E1946206901F0B9F976
:10028000E06801F03CFC0028F4D00023012269461C
:10029000E06801F0AEF9012804BF9DF800000128D4
:1002A000E8D19DF8011058A002F090FFE2E7554C0C
:1002B00000235A1E1946606901F09BF9032001F0E2
:1002C00056FFF5E7022001F052FFC82000F0EAFADD
:1002D000F8E7012001F04BFF322000F0E3FAF8E7E5
:1002E00084B001F097FE042001F0D6FE01F08EFFED
:1002F00001F048FE00220221C82000F0ACFF414C72
:100300000021E060C82001F0C4FA2061002114201F
:1003100001F0BFFA6061E16800291EBF2169002970
:1003200000282FD000240125CDE900540294234653
:10033000802236A1AFF26500039400F07BF8CDE98E
:10034000005400230294802232A1AFF2870003946C
:1003500000F070F8CDE900540023029480222FA110
:10036000AFF2B500039400F065F8CDE90054002326
:10037000029480222BA1AFF20710039400F05AF8E8
:1003800000F077FCFEE770B5284E40F2255130466C
:1003900002F0E4FD1B4C90B1254601202870304648
:1003A00002F04BFD6870221D0023111FE06801F070
:1003B000B5FA0023221D1946206901F0AFFA6068E2
:1003C000002808BF70BD4FF080501949086070BD0B
:1003D00010B5012002F069F80A4C48B1012002F082
:1003E0006CF8002304F108021946606901F096FADE
:1003F000A068002808BF10BD4FF080500C4908606D
:1004000010BD000000000020256300004C45443171
:10041000000000004C454432000000004C454433CD
:1004200000000000555341525400000000100140EC
:1004300004ED00E02DE9FF5F1546DDE90E69DDF80A
:1004400040B00F465FEA000804D0072E05D3FFF73F
:1004500001FFFEE7FFF7FEFEFEE7542001F020FC5F
:10046000040053D04FEA850ABBF1000F0ABF504683
:10047000584601F015FC2063002844D0A5225146BF
:1004800002F080FE6FF0030101EB8501206B00227A
:10049000084420F0070A3546104621183B5C81F8D5
:1004A0003430395C00291CBF401C1028F5D384F877
:1004B0004320072D28BF0625201DE562C4E91352FD
:1004C00001F0AFFB04F1180001F0ABFB2461C5F1B2
:1004D00007016462A16141465046039A01F06FFC36
:1004E0002060B9F1000F18BFC9F8004001F0E9FC25
:1004F000FE4FB868401CB8603868DFF8F48340B13C
:10050000786950B32EE0204601F029FC4FF0FF340B
:1005100044E03C60B868012808BF002522D100BF34
:1005200005EB850008EB800001F070FB6D1C072DCA
:10053000F6D3F04801F06AFBEF4801F067FBEF48A3
:1005400001F064FBEE4801F061FBEE4801F05EFB58
:10055000E84838631430786304E03868C06AB04211
:1005600098BF3C60786A0121401C78626064E06A50
:100570003A6981401143396100EB800008EB80004B
:10058000211D01F051FB012401F0B2FC786928B172
:100590003868C06AB04238BF01F08AFC204604B017
:1005A000BDE8F09F70B5054601F08BFCCF4C002DE7
:1005B00008BF2568281D01F060FB68B9E86ACC4ACD
:1005C00000EB800152F8211031B9012101FA00F04D
:1005D000216921EA00002061A86A00281CBF05F1FA
:1005E000180001F04AFB291DC54801F01DFB606899
:1005F000401C6060606A401C606201F079FC6069C8
:10060000002808BF70BD2068854208D1E06A10B19B
:10061000FFF720FEFEE7BDE8704001F049BC01F0A5
:1006200050FC206B006800280FBF4FF0FF30206B9C
:10063000C068C06818BF4068A062BDE8704001F0A3
:1006400057BC2DE9F047A94C0026E06A48B1A069E3
:10065000401CA061E069002818BF01263046BDE8B3
:10066000F087E068401CE060E7684FF0FF39C7B9E9
:10067000206B006810B1FFF7EDFDFEE7206B616BAA
:1006800021636063206A401C2062206B00680028A0
:1006900008BFC4F8289004D0206BC068C0684068C8
:1006A000A062A06ADFF84882874228BF4FF0010AA3
:1006B0000CD3206B006838B1206BC068C5686868CF
:1006C00087420DD2A06201E0C4F828902068C06A79
:1006D00000EB800058F82000012888BF0126B9E708
:1006E000281D01F0CAFAA86A00281CBF05F11800ED
:1006F00001F0C3FAE86A22690AFA00F111432161A4
:1007000000EB800008EB8000291D01F08DFAE86AFB
:100710002168C96A884228BF0126CAE72DE9F05F2F
:10072000724D4FF0000BE86A38B101F0CAFBE86A7D
:10073000401EE862E86A18B14FE0FFF78BFDFEE764
:10074000A868002849D06D4E4FF00109A6F1B40AFF
:100750003068F8B1F068C46804F1180001F08DFA4F
:10076000201D01F08AFAE06A2A6909FA00F11143B2
:10077000296100EB80000AEB8000211D01F054FA92
:10078000E06A2968C96A884228BFC5F81C903068A9
:100790000028DFD1A86900281CBFA869002815D04F
:1007A000E86A4FF00008E8B1A869401CA861E86950
:1007B000002808BFB8F1000F02D000BFC5F81C9098
:1007C000A869401EA861A8690028E9D1E869012844
:1007D00004BF4FF0010B01F06BFB01F089FB5846A1
:1007E000BDE8F09FE868401CE860EF6877B1A86A50
:1007F0002E46874227D3306B006808B3306BC06841
:10080000C4686068874229D2B0621CE0286B006827
:1008100010B1FFF71FFDFEE7296B686B2863696362
:10082000286A401C2862286B006800281FBF286BBC
:10083000C068C068406808BF4FF0FF30A862D6E7C4
:100840004FF0FF30B0623068C06A00EB80005AF8A9
:100850002000012888BFF069B0D8A8E7201D01F06A
:100860000CFAA06A00281CBF04F1180001F005FA78
:10087000E06A326909FA00F11143316100EB80004E
:100880000AEB8000211D01F0CFF9E06A3168C96AE6
:10089000884228BF4FF00108ADE71448C16A491CDF
:1008A000C162704770B5002841D0104CE16A11B1A7
:1008B000FFF7D0FCFEE7E16A491CE162E1680D1830
:1008C0002068001D01F0D9F948B92068012190F88D
:1008D0002C0001FA00F0216921EA00002061206863
:1008E0004560E068854220680EE0000018000020A6
:1008F000A00000202C010020400100205401002015
:10090000680100207C01002000F1040103D2606B2B
:1009100001F096F906E0206B01F092F9A06AA84276
:1009200088BFA562FFF7FAFE002818BF70BDBDE8BA
:10093000704001F0BDBA10B5044601F0C2FA002CB7
:1009400004BFFD480468E46A01F0D2FA204610BDF5
:100950002DE9F0410E4604464FF00008072902D366
:10096000FFF778FCFEE701F0ACFAF34D002C08BF6E
:100970002C68E06CB0423DD02968864206D98C4292
:1009800008D02968C96AB14202D903E08C4201D17A
:100990004FF00108E76AB84208BFE662E664A06962
:1009A00010F0004F04BFC6F10700A06107EB8701FC
:1009B000E24E606906EB8101884216D1201D01F0EC
:1009C0005CF9012128B92A6901FA07F022EA00003E
:1009D0002861E06A2A6981401143296100EB8000A7
:1009E00006EB8000211D01F01FF9B8F1000F18BFC0
:1009F00001F05EFABDE8F04101F07ABACE4810B5D8
:100A0000C16A00291EBF0121C16110BD0021C16161
:100A10000169B1FA81F1C1F11F0101EB8102C749FE
:100A200051F822306BB101EB820101F108034A68F1
:100A300052684A609A4204BF52684A60D1680160B5
:100A400010BDFFF707FCFEE72DE9F041054601F078
:100A500038FAB94C002D08BF2568281D01F00DF9A2
:100A6000B64E012758B9E86A00EB800156F821100C
:100A700029B9216907FA00F021EA00002061A86A7B
:100A800000281CBF05F1180001F0F7F8291DAC483B
:100A900001F0CAF801F02CFA20688542606935D16E
:100AA00040B1E06A10B1FFF7D5FBFEE7BDE8F041C9
:100AB00001F0FEB9A248A26801680020914204BF7B
:100AC0002060BDE8F081E16A00291CBFE761BDE854
:100AD000F081E0612069B0FA80F0C0F11F0000EB06
:100AE000800056F8201071B106EB800000F108027A
:100AF000416849684160914204BF49684160C868E3
:100B00002060BDE8F081FFF7A5FBFEE7002808BFE5
:100B1000BDE8F08101F0D5F9206B006800280FBF17
:100B20004FF0FF30206BC068C06818BF4068A062FB
:100B3000BDE8F04101F0DCB970B5040010D07E4D85
:100B40002868844208BF70BD01F0BBF97C49606928
:100B5000884220D1A06A283988421CD018B11AE0F6
:100B6000FFF778FBFEE7201D01F087F8E06A01211E
:100B70002A69814011432961704900EB800001EB33
:100B80008000211D01F050F8E06A2968C96A884296
:100B900028BF01F08DF9BDE8704001F0A9B92DE939
:100BA000F041002604000ED001F0C1F9FFF752FB1E
:100BB000074663496069884227D1A06A283988427C
:100BC00023D018B121E0FFF745FBFEE75A4DE86A54
:100BD00000281CBF04F118015A4814D1E06A2968A2
:100BE000C96A884228BF0126201D01F046F8E06A44
:100BF00001212A69814011432961504900EB80009D
:100C000001EB8000211D01F00FF83846FFF729FBAA
:100C10003046BDE8F0814C4E474CA6F1C8076068ED
:100C2000F0B1E06A401CE0623068F8B1FFF776FD91
:100C300001F047F9F068C568281D01F01EF8A068AA
:100C4000401EA0606068401E606001F051F9286B92
:100C500001F085F8284601F082F860680028E0D1AC
:100C60003868012888BF01F023F9D8E7FFF756FD5F
:100C7000F3E710B584B00024009401940294234655
:100C8000802232A133480394FFF7D4FB012806D019
:100C900000281CBF04B010BDFFF7DCFAFEE7FFF729
:100CA000D9FA254801214161C46004B0BDE8104073
:100CB00001F0A3B810B5FFF7CDFA1F490020486135
:100CC000BDE8104001F0EAB810B501F0FAF81A4892
:100CD000C46801F00DF9204610BD10B501F027F9E8
:100CE000FFF7B8FA1449CC68FFF7BBFA204610BDED
:100CF0001148806870472DE9F00F80460B6800208E
:100D0000002B04BFBDE8F00F70474B6801F10807E6
:100D10005B684B60BB4204BFD3F804C0C1F804C099
:100D20004B684FF0020A4FF00009DE684B685B68C1
:100D30004B60BB4210E0000018000020A000002023
:100D40007C010020540100206801002049444C45EA
:100D500000000000170C000804BFD3F804C0C1F85D
:100D600004C04B6808EB4014DD6805F13403C4E9A6
:100D700000536B6CA3602273EB6A2361032A04D1D6
:100D8000AB6A002B18BF84F80CA0EB6CC4E90539E2
:100D90002B6B4FF0000C93F800B0BBF1A50F06D100
:100DA00013F801BF0CF1010CBBF1A50FF8D04FEA0D
:100DB0009C03401CA383B542B8D1BDE8F00F704737
:100DC0002DE9F047DFF8108405460024D8F82C0000
:100DD00017460726401CC8F82C00D8F808008142A6
:100DE00028BFDFF8F8932ED3761E06EB860009EBBA
:100DF000800105EB44100122FFF77DFF0444002E23
:100E0000F2D105EB44100222D8F83010FFF773FF3F
:100E1000044405EB44100222D8F83410FFF76BFFAE
:100E2000044405EB44100422ED49FFF764FF044439
:100E300005EB44100322EB49FFF75DFF0444002F4C
:100E40001CBF00203860FFF769FC2046BDE8F08732
:100E500070B50D4650B1E04C2168183100F0F0FE3D
:100E60002068001D00F009FF18B10CE0FFF7F2F94F
:100E7000FEE72068012190F82C0001FA00F02169BA
:100E800021EA00002061B5F1FF3F0ED0E068054483
:100E900020684560E0688542206800F104010BD2BB
:100EA000606BBDE8704000F0CBBE2068BDE87040CC
:100EB000011DCC4800F0B8BE206B00F0C1FEA06A56
:100EC000A84288BFA56270BD70B5154680B1C24CFE
:100ED000E26A82B1226841F00041916121681831D3
:100EE00000F0A2FE2068001D00F0C7FE30B10FE048
:100EF000FFF7B0F9FEE7FFF7ADF9FEE72068012143
:100F000090F82C0001FA00F0216921EA000020612C
:100F1000B5F1FF3F0ED0E068054420684560E06809
:100F20008542206800F104010BD2606BBDE870407F
:100F300000F086BE2068BDE87040011DA94800F0A1
:100F400073BE206B00F07CFEA06AA84288BFA56239
:100F500070BD70B5C068C468BCB104F1180000F081
:100F60008CFE9D4DE86A012600281CBF04F1180183
:100F70009D480DD000F058FEE06A2968C96A884291
:100F800086BF0120EE61002070BDFFF763F9FEE728
:100F9000201D00F072FEE06A2A6906FA00F1114392
:100FA00029618E4900EB800001EB8000211DE1E703
:100FB00070B5894DEA6A0AB341F000410160C46826
:100FC000FCB100F05AFE201D00F057FEE06A012639
:100FD0002A6906FA00F111432961804900EB80007B
:100FE00001EB8000211D00F01FFEE06A2968C96A3C
:100FF000884292BF00200120EE6170BDFFF72AF900
:10100000FEE7FFF727F9FEE710B528B172490A6A33
:101010000260C968416010BDFFF71CF9FEE770B5BA
:101020000D4604001ED005B300F04BFF6A48C268AD
:101030002968B1F1FF3F08BF00241AD02368D0F817
:1010400020C0634502D06368934211D96368D21A05
:1010500091420DD9891A2960016A2160C0686060D7
:10106000002406E0FFF7F6F8FEE7FFF7F3F8FEE7E7
:10107000012400F03DFF204670BD57490120C861A2
:101080007047002818BF806C7047002818BF816423
:1010900070475148006870474F484169002904BFB4
:1010A00001207047C06A00280CBF02200020704752
:1010B00070B5040008BF70BD474DE06A2968C96A71
:1010C000814298BF70BDA06910F0004F04D128681C
:1010D000C06AC0F10700A061E16A404E01EB8101E6
:1010E000606906EB8101884220D1201D00F0C5FD1A
:1010F000012158B9E06A00EB800256F822202AB993
:101100002A6901FA00F022EA000028612868C06A12
:10111000E0622A6981401143296100EB800006EBFF
:101120008000211DBDE8704000F07EBD2868C06AC7
:10113000E06270BD10B504004FF0000136D0206DA4
:1011400038B1401E2065E36CE26A9A422ED018B195
:101150002CE0FFF77FF8FEE7201D00F08EFD1F4A10
:101160001D49012370B9E06A00EB800C52F82CC0D5
:10117000BCF1000F06D1D1F810C003FA00F02CEA40
:1011800000000861E06CE062C0F10700A061E06A65
:10119000D1F810C0834043EA0C030B6100EB8000E0
:1011A00002EB8000211D00F03FFD0121084610BD2B
:1011B000094908680A688069D26A0968C2F10702A9
:1011C0008A6170470449086818B10868026D521CAA
:1011D000026508687047000018000020A000002089
:1011E000680100207C0100205401002070B50D46EC
:1011F000040021D000F065FED4E90F12206801FB45
:10120000020060600020A0632068491EA06001FB0E
:101210000200E0604FF0FF306064A0647DB104F133
:10122000100000F0F3FC04F1240000F0EFFC00BF1C
:1012300000F05EFE012070BDFFF70CF8FEE72069AC
:101240000028F5D004F11000FFF783FE012808BF45
:1012500000F02EFEECE72DE9F04115460F460600A2
:1012600033D0542000F01CFD04002ED006FB07F004
:10127000401C00F015FD206020B3C4E90F6700F0AA
:1012800020FED4E90F12206801FB020060600020FC
:10129000A0632068491EA06001FB0200E0604FF0DF
:1012A000FF306064A06404F1100000F0AFFC04F1B2
:1012B000240000F0ABFC00F01BFE84F850502046E8
:1012C000BDE8F081204600F04AFDFEF7C3FFFEE7CF
:1012D0002DE9FF4383B01D460F464FF0000904007F
:1012E00001D01FB107E0FEF7B5FFFEE7206C10B19B
:1012F000FEF7B0FFFEE7022D05D1E06B012802D01A
:10130000FEF7A8FFFEE7FFF7C7FE4FF000084FF01B
:10131000FF3620B9059810B1FEF79CFFFEE700F0FC
:10132000D0FDA06BE16B884208D3022D06D0059852
:10133000002849D0B9F1000F49D04DE02E46226C6B
:101340003946002582B1C6B1E06801F009FF216C81
:10135000E068401AE0602268904202D26068401A59
:10136000E060022E1BD115E02068C0B96068FFF76D
:10137000E1FE0546C4F8048011E0A06801F0F0FE2B
:10138000216CA0680844A0606168884224BF20687E
:10139000A06004E0A06B10B1A06B401EA063A06B26
:1013A000401CA063606A30B104F12400FFF7D1FD56
:1013B000012801D002E00DB100F07AFD00F098FDA7
:1013C00007B00120BDE8F08300F092FD4FE06846D1
:1013D000FFF71AFE4FF0010900F08AFDFFF75DFAF2
:1013E00000F06FFD606CB0F1FF3F08BFC4F84480AF
:1013F000A06CB0F1FF3F08BFC4F8488000F078FD52
:1014000005A96846FFF70BFEA8B300F05AFDA06CD3
:1014100000280FDD606A68B104F12400FFF799FD30
:10142000002818BFFFF729FEA06C401EA064A06C26
:101430000028EFDCA66400F05BFD00F042FD606C6C
:1014400000280FDD206968B104F11000FFF781FD6D
:10145000002818BFFFF711FE606C401E6064606CCE
:101460000028EFDC666400F043FDFFF757F907B092
:101470000020BDE8F083FFE700F023FDA06BE16BE7
:1014800088420CD100F034FD04F110000599FFF7FB
:10149000DFFC00F016FDA06C002818DD07E000F06E
:1014A00027FD00F00EFDA06C002842DD31E0606AEF
:1014B00068B104F12400FFF74CFD002818BFFFF7C6
:1014C000DCFDA06C411EA164A06C0028EFDCA664CA
:1014D00000F00EFD00F0F5FC606C00280FDD2069C7
:1014E00068B104F11000FFF734FD002818BFFFF7C2
:1014F000C4FD606C411E6164606C0028EFDC6664B2
:1015000000F0F6FCFFF70AF9002808BF00F0D0FC55
:1015100005E7606A68B104F12400FFF71AFD0028AE
:1015200018BFFFF7AAFDA06C411EA164A06C0028A3
:10153000EFDCA66400F0DCFC00F0C3FC606C00286B
:101540000FDD206968B104F11000FFF702FD0028EB
:1015500018BFFFF792FD606C411E6164606C00284B
:10156000EFDC666400F0C4FCFFF7D8F8D7E670B58E
:101570000546542000F094FB04001DD0002161605A
:101580002160A160E160A1630120C4E90F01801E18
:101590006064A06484F8505004F1100000F036FB41
:1015A00004F1240000F032FB00231A4619462046BD
:1015B000FFF78EFE204670BDFEF74CFEFEE710B52D
:1015C00004000BD0FFF765FD616888421CBF002056
:1015D00010BDE068401EE06009D102E0FEF73AFE6F
:1015E000FEE700231A4619462046FFF771FE012048
:1015F00010BD2DE9FF4383B099460E4604004FF01D
:10160000000701D01EB107E0FEF724FEFEE7206CC4
:1016100010B1FEF71FFEFEE7FFF73EFD4FF000089A
:101620004FF0FF3520B9059810B1FEF713FEFEE725
:1016300000F047FCA06B88B3E568226C304642B1ED
:10164000A918E1606368994224BF2168E16001F054
:1016500087FDB9F1000F0FD0E560606A30B104F189
:101660002400FFF776FC08B100F022FC00F040FCFB
:1016700007B00120BDE8F083A06B401EA063206886
:1016800010B9FFF79FFD606020690028EED004F1DB
:101690001000FFF75EFC0128E6D0E7E7FFE70598BA
:1016A00008B11FB106E000F023FC4EE06846FFF7EA
:1016B000ABFC012700F01CFCFFF7EFF800F001FC89
:1016C000606CB0F1FF3F08BFC4F84480A06CB0F17B
:1016D000FF3F08BFC4F8488000F00AFC05A968462F
:1016E000FFF79DFCA8B300F0ECFBA06C00280FDD19
:1016F000606A68B104F12400FFF72BFC002818BFD2
:10170000FFF7BBFCA06C401EA064A06C0028EFDCBF
:10171000A56400F0EDFB00F0D4FB606C00280FDD49
:10172000206968B104F11000FFF713FC002818BF0E
:10173000FFF7A3FC606C401E6064606C0028EFDC67
:10174000656400F0D5FBFEF7E9FF07B00020BDE8B7
:10175000F083FFE700F0B5FBA06B38B100F0C8FBE9
:1017600000F0AFFBA06C002857DD46E000F0C0FBA6
:10177000206830B900F0A5FB6068FFF799FC00F025
:10178000B7FB04F124000599FFF762FB00F099FB19
:10179000A06C00280FDD606A68B104F12400FFF737
:1017A000D8FB002818BFFFF768FCA06C411EA1649D
:1017B000A06C0028EFDCA56400F09AFB00F081FB30
:1017C000606C00280FDD206968B104F11000FFF79C
:1017D000C0FB002818BFFFF750FC606C411E61641D
:1017E000606C0028EFDC656400F082FBFEF796FF7A
:1017F000002808BF00F05CFB1AE7606A68B104F1DA
:101800002400FFF7A6FB002818BFFFF736FCA06CEA
:10181000411EA164A06C0028EFDCA56400F068FB09
:1018200000F04FFB606C00280FDD206968B104F107
:101830001000FFF78EFB002818BFFFF71EFC606C3E
:10184000411E6164606C0028EFDC656400F050FBB1
:10185000FEF764FFECE670B50D46040009D0FFF713
:1018600018FC6368984207D1E068401CE0600120E2
:1018700070BDFEF7EFFCFEE700232A46194620461E
:10188000FFF7B7FE012818BF70BDE168491CE16091
:1018900070BD2DE9F0470D4620B1854205D9FEF710
:1018A000D9FCFEE7FEF7D6FCFEE780464FF00009C4
:1018B0000226542000F0F4F904002CD00027012067
:1018C00000F0EEF9206018B3C4E90F8900F0F9FACE
:1018D000D4E90F122068A76301FB02006060206852
:1018E000491EA06001FB0200E060F01E6064A0647D
:1018F00004F1100000F08AF904F1240000F086F9E8
:1019000000F0F6FA84F850602046A563BDE8F08741
:10191000204600F024FAFEF79DFCFEE72DE9F04793
:101920001D4616460F46040001D01FB107E0FEF722
:1019300091FCFEE7206C10B1FEF78CFCFEE7022D57
:1019400005D1E06B012802D0FEF784FCFEE700F031
:10195000EEFAFEF77FFC8146A06BE16B884209D36B
:10196000022D18BF002405D04846FEF77AFC204619
:10197000BDE8F087226C39464FF000088AB1CDB13E
:10198000E06801F0EDFB216CE068401AE06021683E
:10199000884203D2216C6068401AE060022D1BD19E
:1019A00015E02068C0B96068FFF7C4FB80460020DE
:1019B000606011E0A06801F0D3FB216CA0680844CE
:1019C000A0606168884224BF2068A06004E0A06B2A
:1019D00010B1A06B401EA063A06B401CA06301254A
:1019E000B8F1000F1CBF002E3560A06CB0F1FF3FB6
:1019F00004D0A06C401CA0640124B5E7606A0028F4
:101A0000FAD004F12400FFF7A4FA00281CBF002E2E
:101A10003560F1E72DE9F04116460D46040001D08E
:101A20001DB107E0FEF716FCFEE7206C10B1FEF7D3
:101A300011FCFEE700F07BFAFEF70CFC0746A06BFA
:101A4000002808BF002418D0216C284651B1E26854
:101A50001144E1606268914224BF2168E160226C18
:101A600001F07EFBA06B401EA063606CB0F1FF3FF5
:101A700009D0606C401C606401243846FEF7F1FB1D
:101A80002046BDE8F08120690028F5D004F110005F
:101A9000FFF75FFA00281EBF002E01203060EBE741
:101AA0002DE9F0410D46040001D01DB107E0FEF71D
:101AB000D1FBFEE7206C10B1FEF7CCFBFEE700F097
:101AC00036FAFEF7C7FB0746A06B002808BF0024C4
:101AD0000FD0E668216C284649B13144E160626864
:101AE000914224BF2168E160226C01F039FBE6607D
:101AF00001243846FEF7B5FB2046BDE8F08110B55D
:101B0000040006D000F0DDF9A46B00F0F1F92046E6
:101B100010BDFEF79FFBFEE710B5040008D000F0F3
:101B2000D0F9A16BE06B441A00F0E2F9204610BD39
:101B3000FEF790FBFEE710B500281CBF806B10BDC0
:101B4000FEF788FBFEE7304A002100BF02EBC1032D
:101B50005B68834203D1002042F831007047491C82
:101B60000829F3D3704710B504001CBF0021264894
:101B700009D000BF00EBC1025368A34206D1002286
:101B800040F8312005E0FEF765FBFEE7491C082917
:101B9000F0D32068002818BF00F0E1F82046BDE827
:101BA000104000F0DCB8C06C7047C164704790F81A
:101BB0005000704710B528B1806B00280CBF012081
:101BC000002010BDFEF746FBFEE710B530B1816B7B
:101BD000C06B81420CBF0120002010BDFEF73AFB14
:101BE000FEE7094B002200BF53F832C0BCF1000FE2
:101BF00003D0521C082AF7D3704743F8321003EB86
:101C0000C2014860704700009001002000F1080107
:101C10004FF0FF32C0E90112C16001610021016093
:101C2000704700210161704742684A6093688B6089
:101C300093685960916008610168491C01607047B0
:101C400010B40B68B3F1FF3F0CBF026900F108024A
:101C500008D000BFD2F804C0DCF800409C4298BF16
:101C60006246F7D953684B6099608A605160086199
:101C70000168491C016010BC7047D0E9013201695C
:101C80009A60D0E901235A604A68824204BF8268A0
:101C90004A60002202610868401E08607047000028
:101CA00070B506460024FEF7F8FD3C4800F1080335
:101CB000416800F1100569B93949A44621F00701CE
:101CC000C3E9001C43F6F832C5E900C2C1E900527D
:101CD00001214160002E3ED006F1080212F0070FEC
:101CE00004D002F00701C1F108010A44511E43F675
:101CF000F73C61453CBFDFF8ACC019682BD24B689C
:101D0000934205D20B68002B1CBF8C461946F6D1B6
:101D1000A94220D0DCF8003003F108040B68CCF8AD
:101D200000304B689B1A102B11D901EB020C1D4D92
:101D3000CCF804304A60DCF804302A6856689E42C9
:101D400038BF1546F9D3CCF80020C5F800C0496863
:101D50000268511A0160FEF7E1FC204670BD0028C0
:101D600008BF704710B5A0F10804FEF796FD0D48B6
:101D70006168026853688B4238BF1046F9D322600D
:101D8000046006486168026811440160BDE81040C3
:101D9000FEF7C4BC0148006870477047500000203F
:101DA000D8010020580000206E484068B0F1FF3F85
:101DB00002D0FEF74FFAFEE7FEF74CFAFEE74FF0CF
:101DC000807C40F804CC40F8081C674B40F80C3C81
:101DD00040F8202C6FF0020240F8242C4438704761
:101DE00062484FF47A710068B0FBF1F0411E4FF089
:101DF000E02041610721016170475D4A00B510781C
:101E000083B00190FF20107010788DF800009DF8CD
:101E10000000544B00F010004FF0070C1870C3F88E
:101E200008C09DF80010604611F0800F0CD000BF74
:101E30009DF8001049008DF800109DF80010401E1C
:101E400011F0800FF4D19860187A000200F4E0607D
:101E50009860019810704748016841F47001016072
:101E6000016841F07041016040484FF47A710068A8
:101E7000B0FBF1F0411E4FF0E0204161C0F810C00E
:101E800000205860FEF7B0F93B48016841F040413E
:101E90000160FEF799F903B0002000BD31484068A9
:101EA000B0F57A7F08BF704710B5FEF7D3F9FEE7AB
:101EB00032494FF080500860BFF34F8FBFF36F8FF0
:101EC000704710B5FEF7C6F926484168491CBFF3B4
:101ED0004F8FBFF36F8F4160012918BF10BD274896
:101EE000006810F01F0F08BF10BDFEF7B3F9FEE742
:101EF0001C4810B5416841B1491E416018BF10BD72
:101F00000020BDE81040FEF7ACB9FEF7A3F9FEE7EC
:101F100010B5FEF79FF9FEF794FB18B117494FF083
:101F200080500860BDE810400020FEF79AB910B557
:101F3000FEF79AF90B49102809D300F1E02090F838
:101F4000F0030A78824202D9FEF784F9FEE70C48D2
:101F50000068896800F4E060884298BF10BDFEF711
:101F600079F9FEE768000020A91D0008880000201C
:101F700000E400E020ED00E034EF00E004ED00E0DC
:101F80000CED00E030B5012185B0084600F029FDD8
:101F90000121880300F040FD00248DF804408DF8F5
:101FA00006408DF80740032001258DF805000095B7
:101FB0006946174800F024FB0021084600F0FAFDAE
:101FC0008DF80E508DF80C400C208DF80D00029508
:101FD00002A800F010FA4FF4407000F0A1F90620BA
:101FE0008DF8100004208DF811008DF812408DF846
:101FF000135004A800F09BF905B030BD10B50121C5
:10200000034800F05BFB002818BF012010BD000052
:102010000000024008B5012000F0A4FB00F0BDFB69
:102020000128FBD10420034600904FF4A872082138
:10203000000500F0E5FB022000F01BFC002000F092
:1020400024FC4FF4805000F027FC4FF4805000F047
:102050002AFC012000F0E3FB042000F0AEF901F0BF
:102060001BF80B484FF47A710068B0FBF1F0411E89
:10207000B1F1807F28BF08BD4FF0E0204161054AE3
:10208000F02182F8141D002181610721016108BD42
:10209000880000200FE000E010B5044682B0012166
:1020A000082000F09EFC01208DF804000020022191
:1020B0008DF806008DF805108DF80700052C14D258
:1020C000DFE804F00306090C10004FF4005007E0AD
:1020D0004FF4805004E04FF4804001E04FF40040A2
:1020E000009002E04FF4704000906946454800F0CF
:1020F00087FA02B010BD01464248052928BF704743
:10210000DFE801F003070B0F13004FF4005100F05C
:10211000E9BA4FF4805100F0E5BA4FF4804100F085
:10212000E1BA4FF4004100F0DDBA4FF4704100F025
:10213000D9BA01463348052928BF7047DFE801F0C6
:1021400003070B0F13004FF4005100F0CDBA4FF40A
:10215000805100F0C9BA4FF4804100F0C5BA4FF485
:10216000004100F0C1BA4FF4704100F0BDBA264AF8
:102170000123117833EA01011170224A20D0052889
:1021800028BF7047DFE800F003080D1217004FF476
:102190000051104600F0A6BA4FF48051104600F0EE
:1021A000A1BA4FF48041104600F09CBA4FF40041B0
:1021B000104600F097BA4FF47041104600F092BA02
:1021C000052828BF7047DFE800F003080D1217004C
:1021D0004FF40051104600F087BA4FF4805110467A
:1021E00000F082BA4FF48041104600F07DBA4FF4FF
:1021F0000041104600F078BA4FF47041104600F0EC
:1022000073BA0000000C02407400002070B588B062
:102210000121102000F000FC0121022000F0E1FB70
:1022200002258DF81450C0208DF8155000243A4E28
:1022300004908DF816408DF8174004A9304600F040
:10224000DFF907220621304600F05BFA072211462B
:10225000304600F056FA4FF4E1300090ADF80840F7
:102260000C202E4EADF80440ADF80A00ADF8064043
:10227000ADF80C406946304600F03CFD012240F2CA
:102280002551304600F048FE002240F227713046CA
:1022900000F042FE4FF4407000F042F825208DF827
:1022A00018008DF819508DF81A4001208DF81B0088
:1022B00006A800F03CF80121304600F097FD4021CF
:1022C000304600F041FE0028F9D008B070BD70B56E
:1022D000054608780C46002808BF70BD288810F015
:1022E000400FFBD02178284600F0A3FD14F8010B25
:1022F00020780028F2D170BD70B5084D0446C1B2F7
:10230000284600F096FD8021284600F01DFE00289A
:10231000F9D0204670BD00000004024000100140CA
:102320002B4940F0FD7040F080600860704710B4A9
:10233000C27801780F244FF0010C0AB3244A1268C6
:1023400001F1E02102F4E062C2F5E062C2F307228B
:10235000C2F10403D44042789A40837823401A4360
:10236000120181F80024007800F01F010CFA01F13D
:102370004009800000F1E020C0F8001110BC704757
:1023800001F01F000CFA00F04909890001F1E02179
:10239000C1F8800110BC704721F07F0121F060413D
:1023A00008430C49086070470B4A0029116814BFA4
:1023B000084321EA0000106070474FF0E021042834
:1023C00008690CBF40F0040020F004000861704769
:1023D0000CED00E008ED00E010ED00E038490020D1
:1023E0000860091D0860091D0860091D086036495C
:1023F000344808607047837931490268002B34D033
:102400000B6823EA02020A60091D0A6803689A43FE
:102410000A60017901F1804101F59E310A68036883
:102420001A430A60294B19680268914319601A1D02
:102430001168D0F800C021EA0C011160417910291F
:1024400008D001F1804101F59E310A68006810430F
:10245000086070471968D0F800C041EA0C011960A3
:1024600011680068084310607047007900F18040EF
:1024700000F59E30016891430160704700210160C2
:1024800001710C2242718171704711490A68104331
:10249000086070470C4A0146002012680A4218BFC3
:1024A00001207047084908607047074A014600202C
:1024B00012680A4218BF012070470349086070473C
:1024C000003C0140FFFF7F00143C0140083C0140FC
:1024D000103C014010B5A0F18041B1F5003129D088
:1024E000B1F5806130D0B1F5806137D0B1F5806150
:1024F0003ED0B1F5806145D0B1F580614CD0B1F5E9
:10250000806153D0B1F580615AD0B1F5806161D05E
:10251000B1F5806169D0B1F5806118BF10BD0121AE
:10252000880200F082FABDE8104000214FF480607C
:1025300000F07BBA0121084600F077FA0021BDE8DF
:102540001040012000F071BA0121022000F06DFA64
:102550000021BDE81040022000F067BA01210420EC
:1025600000F063FA0021BDE81040042000F05DBADD
:102570000121082000F059FA0021BDE81040082090
:1025800000F053BA0121102000F04FFA0021BDE8FD
:102590001040102000F049BA0121202000F045FA37
:1025A0000021BDE81040202000F03FBA012140206A
:1025B00000F03BFA0021BDE81040402000F035BAA1
:1025C0000121802000F031FA0021BDE81040802078
:1025D00000F02BBA0121080200F027FABDE81040F4
:1025E00000214FF4807000F020BA0121480200F071
:1025F0001CFABDE8104000214FF4007000F015BA3D
:102600002DE9F001002201255FF00306D1F800C09A
:1026100005FA02F30CEA030C9C4533D107684FEA34
:10262000420C06FA0CF4A74307600F79D0F800803B
:1026300007FA0CF747EA080707600F79012F18BF60
:10264000022F14D18768A74387604F79D0F808809C
:1026500007FA0CF747EA08078760476827EA030389
:10266000436043688F799740BFB23B434360C36880
:10267000A343C360CB7903FA0CF3D0F80CC043EA50
:102680000C03C360521C102AC0D3BDE8F001704790
:102690004FF6FF7101600021017141718171C171BB
:1026A000704781B041F480320092C261C1610099EB
:1026B000C161C169C069009001B070470246002045
:1026C00012690A4218BF01207047006980B2704742
:1026D0000246002052690A4218BF01207047406933
:1026E00080B270470183704741837047002A14BF4E
:1026F00001834183704741617047426951404161A4
:1027000070474B07DB0E9A40C90800EB8100016A55
:102710004FF00F0C0CFA03F399430162016A114365
:1027200001627047F748016841F001010160F64A13
:1027300000211160026822F4102222F0A8520260E7
:10274000031DF24A1A60F34BF14A1A601B1DF24A4C
:102750001A60026822F480220260F0480160181DAD
:1027600001607047EE4900220A700870704700222D
:102770004109012904BFE349096804D002290CBFBB
:10278000E849E949096800F01F00012303FA00F055
:10279000084218BF01221046704781B00020D94975
:1027A000009000200A6812F4003F18BF0120009A30
:1027B000521C0092B2F5A04F01D00028F1D0086859
:1027C00010F4003018BF012001B07047CD490A68ED
:1027D00022F0F80242EAC00008607047D34908605E
:1027E0007047D04900220A700A70012803D00428DB
:1027F0000CBF0520704708707047CD4908607047CE
:1028000041EA82115A08CB4BDDF800C003EB0242CB
:1028100011430843C84940EA0C6008607047C34947
:1028200008667047800140EA0170BA490860704745
:10283000BE4988667047800140EA0160BF4940EAAE
:10284000027008607047B94908677047B749C864A3
:102850007047AD4A1368084323F0EC6318431060D7
:102860007047A94A1368084323F07843184310605F
:102870007047A5490A6822F00302104308607047B8
:10288000A148006800F00C0070479F490A6822F0D8
:10289000F0021043086070479B490A6822F4E05236
:1028A00010430860704798490A6822F4604242EA7F
:1028B000C00008607047944A30B41168A04B11F012
:1028C0000C0106D05C10042908BF046002D008295E
:1028D0001ED0036011680F2303EA1111994B595C54
:1028E000D0F800C02CFA01F14160D2F800C00724F2
:1028F00004EA9C2C13F80CC021FA0CFCC0F808C0A8
:10290000126804EA52329A5CD140C16030BC704710
:102910008949D1F800C0CCF38055D1F800C0002D12
:102920000CF03F0C14BFB4FBFCF3B3FBFCF3D1F889
:1029300000C00968CCF3881C03FB0CF3C1F3014110
:10294000491C4900B3FBF1F10160C3E74FF440714A
:10295000814309D16C490A6820F4407322F4F812CB
:1029600023F070431A430A606E490A68C0F30B00F3
:1029700010430860704774490860704773490860E5
:1029800070476A49C1F85C01704771490A6822F4CE
:1029900040121043086070476D490A6822F44002F3
:1029A0001043086070476A490A68401E22F01F02FF
:1029B00010430860704766490A686FF0FF0322F40D
:1029C000F85203EB002010430860704760490A6822
:1029D00022F440321043086070475E49C1F8E001BC
:1029E00070475D4A0029116814BF084321EA0000BE
:1029F00010607047594A0029116814BF084321EA42
:102A0000000010607047564A0029116814BF08433F
:102A100021EA000010607047524A0029116814BF73
:102A2000084321EA0000106070474F4A00291168EE
:102A300014BF084321EA0000106070474B4A002988
:102A4000116814BF084321EA000010607047484A2B
:102A50000029116814BF084321EA00001060704784
:102A6000444A0029116814BF084321EA000010609D
:102A70007047414A0029116814BF084321EA000049
:102A8000106070473D4A0029116814BF084321EACD
:102A90000000106070473A4A0029116814BF0843CB
:102AA00021EA000010607047364A0029116814BFFF
:102AB000084321EA0000106070471A49012808689D
:102AC0000CBF40F0080020F00800086070472E4A54
:102AD0000029117814BF084321EA000010707047E4
:102AE0001148016841F08071016070470B4A01464E
:102AF000002012680A4218BF01207047234908705D
:102B000070470000003802400838024010300024AE
:102B10000030002084380240003000240C3802408D
:102B200002380240703802407438024000004742C8
:102B3000800E47420000FFFF043802408838024000
:102B40000024F400750000203C0E4742400E47422E
:102B50008C3802400010474230380240343802407E
:102B600040380240443802401038024014380240D5
:102B70002038024024380240503802405438024085
:102B800060380240643802400D3802400E3802407E
:102B900010B501218803FFF763FFBDE81040002155
:102BA0004FF48040FFF75CBF154908607047154936
:102BB000086270478A0721F0030101F1804101F5A5
:102BC0009831120F0F23D1F808C893402CEA030361
:102BD000C1F80838D1F8083890401843C1F80808FF
:102BE00070470849C1F8DC00704707490860704722
:102BF00006490020096811F4807F18BF0120704742
:102C000000380140000027420004274220380140DC
:102C100010B5A0F18041B1F5883120D011F54C41BB
:102C200027D0B1F580612FD0B1F5806137D0B1F5F3
:102C300080613FD0B1F5444147D011F51C414ED0E1
:102C4000B1F5806118BF10BD0121C807FFF7FFFE75
:102C5000BDE8104000214FF00040FFF7F8BE012111
:102C60001020FFF7FDFE0021BDE810401020FFF707
:102C7000F7BE01214804FFF7EAFEBDE8104000213D
:102C80004FF40030FFF7E3BE01218804FFF7DFFEB9
:102C9000BDE8104000214FF48020FFF7D8BE01218D
:102CA000C804FFF7D4FEBDE8104000214FF4002017
:102CB000FFF7CDBE01210805FFF7C9FEBDE81040B2
:102CC00000214FF48010FFF7C2BE01212020FFF742
:102CD000C7FE0021BDE810402020FFF7C1BE012142
:102CE0008807FFF7B4FEBDE8104000214FF0804098
:102CF000FFF7ADBE30B50446008A85B00D46C988E1
:102D000020F4405008432082A089A9882A8920F411
:102D1000037011436A8920F4A05010430843A08136
:102D2000A08AA98920F440700843A0826846FFF772
:102D3000C2FDA4F18040B0F588301BBFA4F18040F3
:102D4000B0F58A3003980298A18911F4004F00EB86
:102D5000C00101EB0010296814BF49008900B0FBD5
:102D6000F1F0954A6FF0180CA2FB003149090901F6
:102D70000B0903FB0CF300EB8300A38913F4004F52
:102D80004FF0320314BF03EBC00003EB0010A2FBB3
:102D900000204FEA501014BF00F0070000F00F00B1
:102DA0000843208105B030BD4FF416510160002169
:102DB0008180C18001810C22428181817047028A19
:102DC0000B88B1F802C022F4706243EA0C03B1F838
:102DD00004C0C9884CEA01011943114301827047BC
:102DE0000021018041808180C18070470029818954
:102DF00014BF41F4005121F4005181817047028BCE
:102E000002F47F420283028B114301837047002941
:102E1000818914BF41F40041C1F30E0181817047E3
:102E20000029818A14BF41F4006121F4006181828C
:102E30007047C1F30801818070478088C0F30800A3
:102E40007047028A22F00F020282028A1143018235
:102E500070470029818914BF41F0020121F002016D
:102E600081817047828922F40062828182891143C4
:102E700081817047028A22F020020282028A114375
:102E8000018270470029018A14BF41F4804121F476
:102E9000804101827047818941F001018181704741
:102EA0000029818A14BF41F0080121F008018182C4
:102EB0007047028BD2B20283028B42EA0121018366
:102EC00070470029818A14BF41F0200121F02001C0
:102ED000818270470029818A14BF41F0100121F0DE
:102EE000100181827047828A22F004028282828AE3
:102EF0001143818270470029818A14BF41F0020189
:102F000021F0020181827047002A828A14BF114396
:102F100022EA010181827047C1F3421301F01F01CF
:102F20004FF0010C0CFA01F1012B08BF0C3003D05B
:102F3000022B0CBF10301430002A026814BF11435A
:102F400022EA0101016070470246002012880A420D
:102F500018BF01207047C9430180704710B401F0C9
:102F60001F0201240023C1F3421C04FA02F2BCF147
:102F7000010F04BFB0F80CC00CEA020208D0BCF18B
:102F8000020F0CBFB0F810C0B0F814C00CEA020277
:102F9000090A008804FA01F10840002A1CBF002831
:102FA0000123184610BC7047090A012202FA01F1F8
:102FB000C9430180704700001F85EB51524882B021
:102FC000016841F4700101605048016841F001015D
:102FD00001604F4900230B60026822F4102222F0A6
:102FE0008072026000F1040C4A4ACCF800200268AA
:102FF00022F4802202600A1D13600193009302688C
:1030000042F480320260026802F400320092019AB7
:10301000521C0192009A1AB9019AB2F5A04FF2D14E
:10302000026812F4003F08BF00932FD001220092E3
:10303000394A136843F080531360384A136843F4E5
:10304000404313600A680A600A680A600A6842F42A
:1030500080520A60324ACCF80020026842F0807246
:103060000260026812F0007FFBD02E4A40F202702C
:103070001060086820F003000860086840F0020053
:103080000860086800F00C000828FAD126494FF0C3
:103090000060086002B07047DFF874C030B4DCF83C
:1030A0000000224B10F00C01214806D05C100429CE
:1030B00008BF046002D008290CD00360DCF80010BF
:1030C0001C4AC1F30311515C026822FA01F101604C
:1030D00030BC704718490A68C2F380550A68002D51
:1030E00002F03F0214BFB4FBF2F2B3FBF2F20B6842
:1030F0000968C3F388135A43C1F30141491C4900CD
:10310000B2FBF1F10160D9E788ED00E00038024040
:10311000083802401030002440380240007000405F
:1031200008544104003C024008ED00E00024F40093
:10313000880000208C0000200438024006488047A8
:1031400006480047FEE7FEE7FEE7FEE7FEE7FEE78C
:10315000FEE7FEE7FEE7FEE7BD2F00089501000849
:1031600040EA01039B0703D009E008C9121F08C009
:10317000042AFAD203E011F8013B00F8013B521E89
:10318000F9D27047D2B201E000F8012B491EFBD200
:1031900070470022F6E710B513460A460446194662
:1031A000FFF7F0FF204610BD064C074D06E0E06833
:1031B00040F0010394E8070098471034AC42F6D37E
:1031C000FCF7ECFFE0320008003300080FB4054BB9
:1031D00010B503A9044A029800F017F810BC5DF876
:1031E00014FB0000F92200089C00002002E008C83F
:1031F000121F08C1002AFAD170477047002001E071
:1032000001C1121F002AFBD170472DE9F84F9946E2
:10321000924688460546002706E025280AD05146F2
:103220004A4690476D1C7F1C28780028F5D1384607
:10323000BDE8F88F002315F8011F18462E2915D177
:1032400015F8011F04232A290DD06FF02F022978C9
:10325000A1F13004092C09D800EB800002EB4000FA
:1032600008446D1CF3E758F8040B6D1C2A78002AFB
:10327000DDD0632A07D0732A0FD0104651464A4644
:1032800090477F1C2AE018F8042B8DF800200021BD
:103290008DF801106E46012103E058F8046B4FF0E1
:1032A000FF315A074FF0000401D409E0641C844246
:1032B0000BDA8C42FADB325D002AF7D105E0641CA0
:1032C0008C42FCDB305D0028F9D1274404E016F87D
:1032D000010B51464A469047641EF8D26D1CA3E785
:1032E0000033000800000020A0000000EC310008BE
:1032F000A0330008A000002030410000FC3100088D
:1033000000000000000000000000000000000000BD
:1033100000000000000000000000000000000000AD
:10332000000000000000000000000000000000009D
:10333000000000000000000000000000000000008D
:10334000FFFFFFFF00000000000000000000000081
:10335000F83B00000000000000000000000000003A
:10336000000000000000000000000000AAAAAAAAB5
:10337000000000000000000000010203040102033D
:10338000040607080900000000BD01050000000058
:103390000000000001020304060708090000000005
:040000050800019559
:00000001FF
