:020000040800F2
:1000000078410020011F0008091F00080B1F00088D
:100010000D1F00080F1F0008111F0008000000003E
:10002000000000000000000000000000A90100081E
:10003000151F000800000000FD0100089D130008C6
:100040001B1F00081B1F00081B1F00081B1F0008A8
:100050001B1F00081B1F00081B1F00081B1F000898
:100060001B1F00081B1F00081B1F00081B1F000888
:100070001B1F00081B1F00081B1F00081B1F000878
:100080001B1F00081B1F00081B1F000800000000AA
:100090000000000000000000000000001B1F00081E
:1000A0001B1F00081B1F00081B1F00081B1F000848
:1000B0001B1F00081B1F00081B1F00081B1F000838
:1000C0001B1F00081B1F00081B1F00081B1F000828
:1000D0001B1F00081B1F00081B1F0008000000005A
:1000E0001B1F00081B1F00081B1F0008000000004A
:1000F0000000000000000000000000001B1F0008BE
:10010000000000001B1F00081B1F00081B1F000829
:1001100000000000000000000000000000000000DF
:100120001B1F00081B1F00081B1F00081B1F0008C7
:100130001B1F00080000000000000000000000007D
:100140000000000000000000000000001B1F00086D
:100150001B1F00081B1F00081B1F00081B1F000897
:100160001B1F00081B1F000800000000000000000B
:10017000000000000000000000000000000000007F
:10018000000000001B1F000800000000000000002D
:100190001B1F0008DFF80CD001F0D6FE0048004716
:1001A0008D02000878410020294B19680868B0E8E2
:1001B000F04F80F30988BFF36F8F4FF0000080F39A
:1001C000118870470000000006480068006880F34E
:1001D000088862B661B6BFF34F8FBFF36F8F00DF41
:1001E00000BF00BF08ED00E0DFF80C00016841F43B
:1001F00070010160704700BF88ED00E0EFF30980F7
:10020000BFF36F8F124B1A681EF0100F08BF20ED5E
:10021000108A20E9F04F106008B44FF0500080F3CE
:10022000118800F041FB4FF0000080F3118808BCFA
:1002300019680868B0E8F04F1EF0100F08BFB0EC66
:10024000108A80F30988BFF36F8F704700BF00BF2B
:1002500000000020EFF311804FF0500181F311886E
:10026000704780F311887047EFF3058070470000F6
:10027000022001F07AF9C82000F06AFAF8E70120BC
:1002800001F073F9322000F063FAF8E784B001F06E
:10029000BFF8042001F0FEF800240125CDE9005448
:1002A0000294234680220AA1AFF22D00039400F0AD
:1002B00017F8CDE9005400230294802206A1AFF282
:1002C0004F00039400F00CF800F029FCFEE700005A
:1002D0004C454431000000004C4544320000000011
:1002E0002DE9FF5F1546DDE90E69DDF840B00F46E8
:1002F0005FEA000804D0072E05D3FFF7ABFFFEE747
:10030000FFF7A8FFFEE7542000F010FF040053D0D1
:100310004FEA850ABBF1000F0ABF5046584600F06D
:1003200005FF2063002844D0A522514601F0FAFDC4
:100330006FF0030101EB8501206B0022084420F0DF
:10034000070A3546104621183B5C81F83430395C89
:1003500000291CBF401C1028F5D384F84320072D2A
:1003600028BF0625201DE562C4E9135200F09FFE58
:1003700004F1180000F09BFE2461C5F107016462DE
:10038000A16141465046039A00F05FFF2060B9F139
:10039000000F18BFC9F8004000F0D9FFFE4FB86841
:1003A000401CB8603868DFF8F48340B1786950B316
:1003B0002EE0204600F019FF4FF0FF3444E03C608F
:1003C000B868012808BF002522D100BF05EB8500D1
:1003D00008EB800000F060FE6D1C072DF6D3F0489E
:1003E00000F05AFEEF4800F057FEEF4800F054FED0
:1003F000EE4800F051FEEE4800F04EFEE84838634B
:100400001430786304E03868C06AB04298BF3C603A
:10041000786A0121401C78626064E06A3A69814030
:100420001143396100EB800008EB8000211D00F0D2
:1004300041FE012400F0A2FF786928B13868C06A43
:10044000B04238BF00F07AFF204604B0BDE8F09F0C
:1004500070B5054600F07BFFCF4C002D08BF256826
:10046000281D00F050FE68B9E86ACC4A00EB800114
:1004700052F8211031B9012101FA00F0216921EA75
:1004800000002061A86A00281CBF05F1180000F0D8
:100490003AFE291DC54800F00DFE6068401C6060F2
:1004A000606A401C606200F069FF6069002808BF54
:1004B00070BD2068854208D1E06A10B1FFF7CAFE1E
:1004C000FEE7BDE8704000F039BF00F040FF206B50
:1004D000006800280FBF4FF0FF30206BC068C06875
:1004E00018BF4068A062BDE8704000F047BF2DE92A
:1004F000F047A94C0026E06A48B1A069401CA06101
:10050000E069002818BF01263046BDE8F087E068A2
:10051000401CE060E7684FF0FF39C7B9206B006806
:1005200010B1FFF797FEFEE7206B616B21636063FC
:10053000206A401C2062206B0068002808BFC4F8B5
:10054000289004D0206BC068C0684068A062A06A90
:10055000DFF84882874228BF4FF0010A0CD3206B96
:10056000006838B1206BC068C568686887420DD2E2
:10057000A06201E0C4F828902068C06A00EB800007
:1005800058F82000012888BF0126B9E7281D00F08F
:10059000BAFDA86A00281CBF05F1180000F0B3FDE1
:1005A000E86A22690AFA00F11143216100EB800038
:1005B00008EB8000291D00F07DFDE86A2168C96A0A
:1005C000884228BF0126CAE72DE9F05F724D4FF03F
:1005D000000BE86A38B100F0BAFEE86A401EE86233
:1005E000E86A18B14FE0FFF735FEFEE7A86800287B
:1005F00049D06D4E4FF00109A6F1B40A3068F8B148
:10060000F068C46804F1180000F07DFD201D00F0C2
:100610007AFDE06A2A6909FA00F11143296100EBC9
:1006200080000AEB8000211D00F044FDE06A29688B
:10063000C96A884228BFC5F81C9030680028DFD1FD
:10064000A86900281CBFA869002815D0E86A4FF0E7
:100650000008E8B1A869401CA861E869002808BF43
:10066000B8F1000F02D000BFC5F81C90A869401E69
:10067000A861A8690028E9D1E869012804BF4FF002
:10068000010B00F05BFE00F079FE5846BDE8F09FDC
:10069000E868401CE860EF6877B1A86A2E46874298
:1006A00027D3306B006808B3306BC068C4686068DB
:1006B000874229D2B0621CE0286B006810B1FFF7B6
:1006C000C9FDFEE7296B686B28636963286A401CD3
:1006D0002862286B006800281FBF286BC068C068AC
:1006E000406808BF4FF0FF30A862D6E74FF0FF30F8
:1006F000B0623068C06A00EB80005AF82000012820
:1007000088BFF069B0D8A8E7201D00F0FCFCA06A03
:1007100000281CBF04F1180000F0F5FCE06A326903
:1007200009FA00F11143316100EB80000AEB80000F
:10073000211D00F0BFFCE06A3168C96A884228BF09
:100740004FF00108ADE71448C16A491CC162704707
:1007500070B5002841D0104CE16A11B1FFF77AFD65
:10076000FEE7E16A491CE162E1680D182068001D9E
:1007700000F0C9FC48B92068012190F82C0001FA6A
:1007800000F0216921EA0000206120684560E068EE
:10079000854220680EE00000000000208400002058
:1007A0001001002024010020380100204C0100200D
:1007B0006001002000F1040103D2606B00F086FCB0
:1007C00006E0206B00F082FCA06AA84288BFA56208
:1007D000FFF7FAFE002818BF70BDBDE8704000F0BA
:1007E000ADBD10B5044600F0B2FD002C04BFFD48BD
:1007F0000468E46A00F0C2FD204610BD2DE9F04116
:100800000E4604464FF00008072902D3FFF722FDE9
:10081000FEE700F09CFDF34D002C08BF2C68E06C57
:10082000B0423DD02968864206D98C4208D029685A
:10083000C96AB14202D903E08C4201D14FF00108EC
:10084000E76AB84208BFE662E664A06910F0004FAC
:1008500004BFC6F10700A06107EB8701E24E6069A3
:1008600006EB8101884216D1201D00F04CFC0121CD
:1008700028B92A6901FA07F022EA00002861E06A33
:100880002A6981401143296100EB800006EB80005A
:10089000211D00F00FFCB8F1000F18BF00F04EFD55
:1008A000BDE8F04100F06ABDCE4810B5C16A00292C
:1008B0001EBF0121C16110BD0021C1610169B1FAF2
:1008C00081F1C1F11F0101EB8102C74951F82230CA
:1008D0006BB101EB820101F108034A6852684A607A
:1008E0009A4204BF52684A60D168016010BDFFF7A8
:1008F000B1FCFEE72DE9F041054600F028FDB94CBA
:10090000002D08BF2568281D00F0FDFBB64E01270D
:1009100058B9E86A00EB800156F8211029B921691D
:1009200007FA00F021EA00002061A86A00281CBF35
:1009300005F1180000F0E7FB291DAC4800F0BAFBF8
:1009400000F01CFD20688542606935D140B1E06A45
:1009500010B1FFF77FFCFEE7BDE8F04100F0EEBC10
:10096000A248A26801680020914204BF2060BDE84F
:10097000F081E16A00291CBFE761BDE8F081E06118
:100980002069B0FA80F0C0F11F0000EB800056F83B
:10099000201071B106EB800000F10802416849683F
:1009A0004160914204BF49684160C8682060BDE869
:1009B000F081FFF74FFCFEE7002808BFBDE8F0819B
:1009C00000F0C5FC206B006800280FBF4FF0FF301F
:1009D000206BC068C06818BF4068A062BDE8F041E5
:1009E00000F0CCBC70B5040010D07E4D2868844265
:1009F00008BF70BD00F0ABFC7C496069884220D123
:100A0000A06A283988421CD018B11AE0FFF722FCEE
:100A1000FEE7201D00F077FBE06A01212A69814092
:100A200011432961704900EB800001EB8000211D1A
:100A300000F040FBE06A2968C96A884228BF00F0DC
:100A40007DFCBDE8704000F099BC2DE9F041002626
:100A500004000ED000F0B1FCFFF7FCFB0746634931
:100A60006069884227D1A06A2839884223D018B10A
:100A700021E0FFF7EFFBFEE75A4DE86A00281CBFB4
:100A800004F118015A4814D1E06A2968C96A8842F9
:100A900028BF0126201D00F036FBE06A01212A69EB
:100AA000814011432961504900EB800001EB800037
:100AB000211D00F0FFFA3846FFF7D3FB3046BDE8B2
:100AC000F0814C4E474CA6F1C8076068F0B1E06A6F
:100AD000401CE0623068F8B1FFF776FD00F037FCAB
:100AE000F068C568281D00F00EFBA068401EA060DD
:100AF0006068401E606000F041FC286B00F075FBF0
:100B0000284600F072FB60680028E0D138680128B0
:100B100088BF00F013FCD8E7FFF756FDF3E710B5E8
:100B200084B000240094019402942346802232A1D0
:100B300033480394FFF7D4FB012806D000281CBFDC
:100B400004B010BDFFF786FBFEE7FFF783FB2548E7
:100B500001214161C46004B0BDE8104000F093BBC6
:100B600010B5FFF777FB1F4900204861BDE8104032
:100B700000F0DABB10B500F0EAFB1A48C46800F0D8
:100B8000FDFB204610BD10B500F017FCFFF762FB1F
:100B90001449CC68FFF765FB204610BD11488068FA
:100BA00070472DE9F00F80460B680020002B04BF32
:100BB000BDE8F00F70474B6801F108075B684B60B8
:100BC000BB4204BFD3F804C0C1F804C04B684FF067
:100BD000020A4FF00009DE684B685B684B60BB425D
:100BE00010E00000000000208400002060010020D0
:100BF000380100204C01002049444C450000000011
:100C0000C30A000804BFD3F804C0C1F804C04B688D
:100C100008EB4014DD6805F13403C4E900536B6C44
:100C2000A3602273EB6A2361032A04D1AB6A002B11
:100C300018BF84F80CA0EB6CC4E905392B6B4FF09E
:100C4000000C93F800B0BBF1A50F06D113F801BF5B
:100C50000CF1010CBBF1A50FF8D04FEA9C03401C2E
:100C6000A383B542B8D1BDE8F00F70472DE9F04736
:100C7000DFF8108405460024D8F82C001746072614
:100C8000401CC8F82C00D8F80800814228BFDFF8C3
:100C9000F8932ED3761E06EB860009EB800105EB58
:100CA00044100122FFF77DFF0444002EF2D105EB32
:100CB00044100222D8F83010FFF773FF044405EB0C
:100CC00044100222D8F83410FFF76BFF044405EB00
:100CD00044100422ED49FFF764FF044405EB44107F
:100CE0000322EB49FFF75DFF0444002F1CBF0020E7
:100CF0003860FFF769FC2046BDE8F08770B50D4607
:100D000050B1E04C2168183100F0E0F92068001D76
:100D100000F0F9F918B10CE0FFF79CFAFEE7206843
:100D2000012190F82C0001FA00F0216921EA00006D
:100D30002061B5F1FF3F0ED0E068054420684560B2
:100D4000E0688542206800F104010BD2606BBDE8C9
:100D5000704000F0BBB92068BDE87040011DCC4870
:100D600000F0A8B9206B00F0B1F9A06AA84288BFD2
:100D7000A56270BD70B5154680B1C24CE26A82B101
:100D8000226841F0004191612168183100F092F928
:100D90002068001D00F0B7F930B10FE0FFF75AFAF4
:100DA000FEE7FFF757FAFEE72068012190F82C00D4
:100DB00001FA00F0216921EA00002061B5F1FF3F4E
:100DC0000ED0E068054420684560E06885422068F0
:100DD00000F104010BD2606BBDE8704000F076B901
:100DE0002068BDE87040011DA94800F063B9206B80
:100DF00000F06CF9A06AA84288BFA56270BD70B50A
:100E0000C068C468BCB104F1180000F07CF99D4DC5
:100E1000E86A012600281CBF04F118019D480DD086
:100E200000F048F9E06A2968C96A884286BF012053
:100E3000EE61002070BDFFF70DFAFEE7201D00F007
:100E400062F9E06A2A6906FA00F1114329618E49C4
:100E500000EB800001EB8000211DE1E770B5894DBA
:100E6000EA6A0AB341F000410160C468FCB100F0D5
:100E70004AF9201D00F047F9E06A01262A6906FABE
:100E800000F111432961804900EB800001EB8000F3
:100E9000211D00F00FF9E06A2968C96A884292BFF3
:100EA00000200120EE6170BDFFF7D4F9FEE7FFF7E7
:100EB000D1F9FEE710B528B172490A6A0260C96823
:100EC000416010BDFFF7C6F9FEE770B50D4604009E
:100ED0001ED005B300F03BFA6A48C2682968B1F138
:100EE000FF3F08BF00241AD02368D0F820C0634514
:100EF00002D06368934211D96368D21A91420DD926
:100F0000891A2960016A2160C0686060002406E0D7
:100F1000FFF7A0F9FEE7FFF79DF9FEE7012400F0D7
:100F20002DFA204670BD57490120C861704700283E
:100F300018BF806C7047002818BF81647047514803
:100F4000006870474F484169002904BF012070477D
:100F5000C06A00280CBF02200020704770B5040052
:100F600008BF70BD474DE06A2968C96A814298BFD1
:100F700070BDA06910F0004F04D12868C06AC0F1AC
:100F80000700A061E16A404E01EB8101606906EB58
:100F90008101884220D1201D00F0B5F8012158B907
:100FA000E06A00EB800256F822202AB92A6901FA89
:100FB00000F022EA000028612868C06AE0622A691D
:100FC00081401143296100EB800006EB8000211D68
:100FD000BDE8704000F06EB82868C06AE06270BD7D
:100FE00010B504004FF0000136D0206D38B1401E1E
:100FF0002065E36CE26A9A422ED018B12CE0FFF72C
:1010000029F9FEE7201D00F07EF81F4A1D49012343
:1010100070B9E06A00EB800C52F82CC0BCF1000FF4
:1010200006D1D1F810C003FA00F02CEA00000861E4
:10103000E06CE062C0F10700A061E06AD1F810C086
:10104000834043EA0C030B6100EB800002EB80005D
:10105000211D00F02FF80121084610BD094908683C
:101060000A688069D26A0968C2F107028A6170471A
:101070000449086818B10868026D521C02650868C6
:101080007047000000000020840000204C01002078
:10109000600100203801002000F108014FF0FF320C
:1010A000C0E90112C16001610021016070470021A7
:1010B0000161704742684A6093688B609368596029
:1010C000916008610168491C0160704710B40B68A9
:1010D000B3F1FF3F0CBF026900F1080208D000BF66
:1010E000D2F804C0DCF800409C4298BF6246F7D9B1
:1010F00053684B6099608A60516008610168491CBF
:10110000016010BC7047D0E9013201699A60D0E9F2
:1011100001235A604A68824204BF82684A60002202
:1011200002610868401E08607047000070B50646FE
:101130000024FFF708FB3C4800F10803416800F178
:10114000100569B93949A44621F00701C3E9001C1B
:1011500043F6F832C5E900C2C1E9005201214160FD
:10116000002E3ED006F1080212F0070F04D002F064
:101170000701C1F108010A44511E43F6F73C6145DD
:101180003CBFDFF8ACC019682BD24B68934205D244
:101190000B68002B1CBF8C461946F6D1A94220D003
:1011A000DCF8003003F108040B68CCF800304B6821
:1011B0009B1A102B11D901EB020C1D4DCCF80430F9
:1011C0004A60DCF804302A6856689E4238BF1546EB
:1011D000F9D3CCF80020C5F800C049680268511A5C
:1011E0000160FFF7F1F9204670BD002808BF704785
:1011F00010B5A0F10804FFF7A6FA0D48616802686F
:1012000053688B4238BF1046F9D322600460064809
:101210006168026811440160BDE81040FFF7D4B96D
:101220000148006870477047380000207C010020AA
:10123000400000206E484068B0F1FF3F02D0FFF749
:1012400009F8FEE7FFF706F8FEE74FF0807C40F86C
:1012500004CC40F8081C674B40F80C3C40F8202CAC
:101260006FF0020240F8242C4438704762484FF473
:101270007A710068B0FBF1F0411E4FF0E02041614F
:101280000721016170475D4A00B5107883B0019075
:10129000FF20107010788DF800009DF80000544B6E
:1012A00000F050004FF0070C1870C3F808C09DF80C
:1012B0000010604611F0800F0CD000BF9DF80010A8
:1012C00049008DF800109DF80010401E11F0800FAD
:1012D000F4D19860187A000200F4E06098600198F8
:1012E00010704748016841F470010160016841F0E5
:1012F0007041016040484FF47A710068B0FBF1F032
:10130000411E4FF0E0204161C0F810C0002058603D
:10131000FEF76AFF3B48016841F040410160FEF77B
:1013200053FF03B0002000BD31484068B0F57A7F1C
:1013300008BF704710B5FEF78DFFFEE732494FF04A
:1013400080500860BFF34F8FBFF36F8F704710B5A9
:10135000FEF780FF26484168491CBFF34F8FBFF35B
:101360006F8F4160012918BF10BD2748006810F039
:101370001F0F08BF10BDFEF76DFFFEE71C4810B53C
:10138000416841B1491E416018BF10BD0020BDE851
:101390001040FEF766BFFEF75DFFFEE710B5FEF7F3
:1013A00059FFFFF7A4F818B117494FF080500860B3
:1013B000BDE810400020FEF754BF10B5FEF754FF03
:1013C0000B49102809D300F1E02090F8F0030A78C7
:1013D000824202D9FEF73EFFFEE70C4800688968AA
:1013E00000F4E060884298BF10BDFEF733FFFEE7CF
:1013F00050000020351200087000002000E400E0DA
:1014000020ED00E034EF00E004ED00E00CED00E042
:1014100008B5012000F09EFA00F0B7FA0128FBD1D0
:101420000420034600904FF4A8720821000500F044
:10143000DFFA022000F015FB002000F01EFB4FF445
:10144000805000F021FB4FF4805000F024FB01207D
:1014500000F0DDFA042000F024F900F0FFFC0B4856
:101460004FF47A710068B0FBF1F0411EB1F1807F5A
:1014700028BF08BD4FF0E0204161054AF02182F805
:10148000141D002181610721016108BD7000002049
:101490000FE000E010B5044682B00121082000F002
:1014A00098FB01208DF80400002002218DF8060031
:1014B0008DF805108DF80700052C14D2DFE804F034
:1014C0000306090C10004FF4005007E04FF4805061
:1014D00004E04FF4804001E04FF40040009002E04F
:1014E0004FF4704000906946454800F081F902B021
:1014F00010BD01464248052928BF7047DFE801F0CA
:1015000003070B0F13004FF4005100F0E3B94FF441
:10151000805100F0DFB94FF4804100F0DBB94FF4A7
:10152000004100F0D7B94FF4704100F0D3B9014643
:101530003348052928BF7047DFE801F003070B0F88
:1015400013004FF4005100F0C7B94FF4805100F080
:10155000C3B94FF4804100F0BFB94FF4004100F02F
:10156000BBB94FF4704100F0B7B9264A0123117896
:1015700033EA01011170224A20D0052828BF7047A4
:10158000DFE800F003080D1217004FF40051104679
:1015900000F0A0B94FF48051104600F09BB94FF411
:1015A0008041104600F096B94FF40041104600F01B
:1015B00091B94FF47041104600F08CB9052828BF4E
:1015C0007047DFE800F003080D1217004FF40051D8
:1015D000104600F081B94FF48051104600F07CB9FC
:1015E0004FF48041104600F077B94FF400411046A7
:1015F00000F072B94FF47041104600F06DB9000070
:10160000000C02405C0000202B4940F0FD7040F0CF
:1016100080600860704710B4C27801780F244FF0E2
:10162000010C0AB3244A126801F1E02102F4E062DD
:10163000C2F5E062C2F30722C2F10403D44042784B
:101640009A40837823401A43120181F800240078DD
:1016500000F01F010CFA01F14009800000F1E020C8
:10166000C0F8001110BC704701F01F000CFA00F028
:101670004909890001F1E021C1F8800110BC7047DF
:1016800021F07F0121F0604108430C490860704758
:101690000B4A0029116814BF084321EA00001060BA
:1016A00070474FF0E021042808690CBF40F00400A7
:1016B00020F00400086170470CED00E008ED00E048
:1016C00010ED00E010B5A0F18041B1F5003129D056
:1016D000B1F5806130D0B1F5806137D0B1F580616E
:1016E0003ED0B1F5806145D0B1F580614CD0B1F507
:1016F000806153D0B1F580615AD0B1F5806161D07D
:10170000B1F5806169D0B1F5806118BF10BD0121CC
:10171000880200F082FABDE8104000214FF480609A
:1017200000F07BBA0121084600F077FA0021BDE8FD
:101730001040012000F071BA0121022000F06DFA82
:101740000021BDE81040022000F067BA012104200A
:1017500000F063FA0021BDE81040042000F05DBAFB
:101760000121082000F059FA0021BDE810400820AE
:1017700000F053BA0121102000F04FFA0021BDE81B
:101780001040102000F049BA0121202000F045FA55
:101790000021BDE81040202000F03FBA0121402088
:1017A00000F03BFA0021BDE81040402000F035BABF
:1017B0000121802000F031FA0021BDE81040802096
:1017C00000F02BBA0121080200F027FABDE8104012
:1017D00000214FF4807000F020BA0121480200F08F
:1017E0001CFABDE8104000214FF4007000F015BA5B
:1017F0002DE9F001002201255FF00306D1F800C0B9
:1018000005FA02F30CEA030C9C4533D107684FEA52
:10181000420C06FA0CF4A74307600F79D0F8008059
:1018200007FA0CF747EA080707600F79012F18BF7E
:10183000022F14D18768A74387604F79D0F80880BA
:1018400007FA0CF747EA08078760476827EA0303A7
:10185000436043688F799740BFB23B434360C3689E
:10186000A343C360CB7903FA0CF3D0F80CC043EA6E
:101870000C03C360521C102AC0D3BDE8F0017047AE
:101880004FF6FF7101600021017141718171C171D9
:10189000704781B041F480320092C261C161009909
:1018A000C161C169C069009001B070470246002063
:1018B00012690A4218BF01207047006980B2704760
:1018C0000246002052690A4218BF01207047406951
:1018D00080B270470183704741837047002A14BF6C
:1018E00001834183704741617047426951404161C2
:1018F00070474B07DB0E9A40C90800EB8100016A74
:101900004FF00F0C0CFA03F399430162016A114383
:1019100001627047F748016841F001010160F64A31
:1019200000211160026822F4102222F0A852026005
:10193000031DF24A1A60F34BF14A1A601B1DF24A6A
:101940001A60026822F480220260F0480160181DCB
:1019500001607047EE4900220A700870704700224B
:101960004109012904BFE349096804D002290CBFD9
:10197000E849E949096800F01F00012303FA00F073
:10198000084218BF01221046704781B00020D94993
:10199000009000200A6812F4003F18BF0120009A4E
:1019A000521C0092B2F5A04F01D00028F1D0086877
:1019B00010F4003018BF012001B07047CD490A680B
:1019C00022F0F80242EAC00008607047D34908607C
:1019D0007047D04900220A700A70012803D00428F9
:1019E0000CBF0520704708707047CD4908607047EC
:1019F00041EA82115A08CB4BDDF800C003EB0242EA
:101A000011430843C84940EA0C6008607047C34965
:101A100008667047800140EA0170BA490860704763
:101A2000BE4988667047800140EA0160BF4940EACC
:101A3000027008607047B94908677047B749C864C1
:101A40007047AD4A1368084323F0EC6318431060F5
:101A50007047A94A1368084323F07843184310607D
:101A60007047A5490A6822F00302104308607047D6
:101A7000A148006800F00C0070479F490A6822F0F6
:101A8000F0021043086070479B490A6822F4E05254
:101A900010430860704798490A6822F4604242EA9D
:101AA000C00008607047944A30B41168A04B11F030
:101AB0000C0106D05C10042908BF046002D008297C
:101AC0001ED0036011680F2303EA1111994B595C72
:101AD000D0F800C02CFA01F14160D2F800C0072410
:101AE00004EA9C2C13F80CC021FA0CFCC0F808C0C6
:101AF000126804EA52329A5CD140C16030BC70472F
:101B00008949D1F800C0CCF38055D1F800C0002D30
:101B10000CF03F0C14BFB4FBFCF3B3FBFCF3D1F8A7
:101B200000C00968CCF3881C03FB0CF3C1F301412E
:101B3000491C4900B3FBF1F10160C3E74FF4407168
:101B4000814309D16C490A6820F4407322F4F812E9
:101B500023F070431A430A606E490A68C0F30B0011
:101B60001043086070477449086070477349086003
:101B700070476A49C1F85C01704771490A6822F4EC
:101B800040121043086070476D490A6822F4400211
:101B90001043086070476A490A68401E22F01F021D
:101BA00010430860704766490A686FF0FF0322F42B
:101BB000F85203EB002010430860704760490A6840
:101BC00022F440321043086070475E49C1F8E001DA
:101BD00070475D4A0029116814BF084321EA0000DC
:101BE00010607047594A0029116814BF084321EA60
:101BF000000010607047564A0029116814BF08435E
:101C000021EA000010607047524A0029116814BF91
:101C1000084321EA0000106070474F4A002911680C
:101C200014BF084321EA0000106070474B4A0029A6
:101C3000116814BF084321EA000010607047484A49
:101C40000029116814BF084321EA000010607047A2
:101C5000444A0029116814BF084321EA00001060BB
:101C60007047414A0029116814BF084321EA000067
:101C7000106070473D4A0029116814BF084321EAEB
:101C80000000106070473A4A0029116814BF0843E9
:101C900021EA000010607047364A0029116814BF1D
:101CA000084321EA0000106070471A4901280868BB
:101CB0000CBF40F0080020F00800086070472E4A72
:101CC0000029117814BF084321EA00001070704702
:101CD0001148016841F08071016070470B4A01466C
:101CE000002012680A4218BF01207047234908707B
:101CF00070470000003802400838024010300024CD
:101D00000030002084380240003000240C380240AB
:101D100002380240703802407438024000004742E6
:101D2000800E47420000FFFF04380240883802401E
:101D30000024F4005D0000203C0E4742400E474264
:101D40008C3802400010474230380240343802409C
:101D500040380240443802401038024014380240F3
:101D600020380240243802405038024054380240A3
:101D700060380240643802400D3802400E3802409C
:101D8000524882B0016841F4700101605048016816
:101D900041F0010101604F4900230B60026822F409
:101DA000102222F08072026000F1040C4A4ACCF842
:101DB0000020026822F4802202600A1D1360019351
:101DC0000093026842F480320260026802F400323A
:101DD0000092019A521C0192009A1AB9019AB2F526
:101DE000A04FF2D1026812F4003F08BF00932FD039
:101DF00001220092394A136843F080531360384A35
:101E0000136843F4404313600A680A600A680A6072
:101E10000A6842F480520A60324ACCF80020026814
:101E200042F080720260026812F0007FFBD02E4AFE
:101E300040F202701060086820F003000860086833
:101E400040F002000860086800F00C000828FAD191
:101E500026494FF00060086002B07047DFF874C098
:101E600030B4DCF80000224B10F00C01214806D001
:101E70005C10042908BF046002D008290CD003605C
:101E8000DCF800101C4AC1F30311515C026822FA0D
:101E900001F1016030BC704718490A68C2F38055EF
:101EA0000A68002D02F03F0214BFB4FBF2F2B3FB4C
:101EB000F2F20B680968C3F388135A43C1F3014176
:101EC000491C4900B2FBF1F10160D9E788ED00E05F
:101ED00000380240083802401030002440380240E8
:101EE0000070004008544104003C024008ED00E04E
:101EF0000024F40070000020740000200438024028
:101F00000648804706480047FEE7FEE7FEE7FEE793
:101F1000FEE7FEE7FEE7FEE7FEE7FEE7811D0008BD
:101F200095010008D2B201E000F8012B491EFBD256
:101F300070470022F6E710B513460A4604461946D4
:101F4000FFF7F0FF204610BD064C074D06E0E068A5
:101F500040F0010394E8070098471034AC42F6D3F0
:101F6000FEF71CF98C1F0008AC1F000802E008C82F
:101F7000121F08C1002AFAD170477047002001E003
:101F800001C1121F002AFBD170470000AC1F0008DE
:101F900000000020840000006C1F000830200008B2
:101FA00084000020F44000007C1F000800000000B6
:101FB0000000000000000000000000000000000021
:101FC0000000000000000000000000000000000011
:101FD00000000000FFFFFFFF000000000000000005
:101FE00000000000F83B00000000000000000000BE
:101FF00000000000000000000000000000000000E1
:10200000AAAAAAAA00000000000000000001020322
:1020100004010203040607080900000000BD0105D1
:102020000000000000000000010203040607080988
:040000050800019559
:00000001FF
